{
  "_format": "hh-sol-artifact-1",
  "contractName": "Five",
  "sourceName": "contracts/Five.sol",
  "abi": [
    {
      "inputs": [],
      "stateMutability": "nonpayable",
      "type": "constructor"
    },
    {
      "anonymous": false,
      "inputs": [
        {
          "indexed": true,
          "internalType": "address",
          "name": "owner",
          "type": "address"
        },
        {
          "indexed": true,
          "internalType": "address",
          "name": "approved",
          "type": "address"
        },
        {
          "indexed": true,
          "internalType": "uint256",
          "name": "tokenId",
          "type": "uint256"
        }
      ],
      "name": "Approval",
      "type": "event"
    },
    {
      "anonymous": false,
      "inputs": [
        {
          "indexed": true,
          "internalType": "address",
          "name": "owner",
          "type": "address"
        },
        {
          "indexed": true,
          "internalType": "address",
          "name": "operator",
          "type": "address"
        },
        {
          "indexed": false,
          "internalType": "bool",
          "name": "approved",
          "type": "bool"
        }
      ],
      "name": "ApprovalForAll",
      "type": "event"
    },
    {
      "anonymous": false,
      "inputs": [
        {
          "indexed": true,
          "internalType": "address",
          "name": "previousOwner",
          "type": "address"
        },
        {
          "indexed": true,
          "internalType": "address",
          "name": "newOwner",
          "type": "address"
        }
      ],
      "name": "OwnershipTransferred",
      "type": "event"
    },
    {
      "anonymous": false,
      "inputs": [
        {
          "indexed": true,
          "internalType": "address",
          "name": "from",
          "type": "address"
        },
        {
          "indexed": true,
          "internalType": "address",
          "name": "to",
          "type": "address"
        },
        {
          "indexed": true,
          "internalType": "uint256",
          "name": "tokenId",
          "type": "uint256"
        }
      ],
      "name": "Transfer",
      "type": "event"
    },
    {
      "inputs": [],
      "name": "COST",
      "outputs": [
        {
          "internalType": "uint256",
          "name": "",
          "type": "uint256"
        }
      ],
      "stateMutability": "view",
      "type": "function"
    },
    {
      "inputs": [],
      "name": "MAX_SUPPLY",
      "outputs": [
        {
          "internalType": "uint256",
          "name": "",
          "type": "uint256"
        }
      ],
      "stateMutability": "view",
      "type": "function"
    },
    {
      "inputs": [
        {
          "internalType": "address",
          "name": "to",
          "type": "address"
        },
        {
          "internalType": "uint256",
          "name": "tokenId",
          "type": "uint256"
        }
      ],
      "name": "approve",
      "outputs": [],
      "stateMutability": "nonpayable",
      "type": "function"
    },
    {
      "inputs": [
        {
          "internalType": "address",
          "name": "owner",
          "type": "address"
        }
      ],
      "name": "balanceOf",
      "outputs": [
        {
          "internalType": "uint256",
          "name": "",
          "type": "uint256"
        }
      ],
      "stateMutability": "view",
      "type": "function"
    },
    {
      "inputs": [
        {
          "internalType": "uint256",
          "name": "tokenId",
          "type": "uint256"
        }
      ],
      "name": "getApproved",
      "outputs": [
        {
          "internalType": "address",
          "name": "",
          "type": "address"
        }
      ],
      "stateMutability": "view",
      "type": "function"
    },
    {
      "inputs": [
        {
          "internalType": "address",
          "name": "",
          "type": "address"
        }
      ],
      "name": "hasMinted",
      "outputs": [
        {
          "internalType": "bool",
          "name": "",
          "type": "bool"
        }
      ],
      "stateMutability": "view",
      "type": "function"
    },
    {
      "inputs": [
        {
          "internalType": "address",
          "name": "owner",
          "type": "address"
        },
        {
          "internalType": "address",
          "name": "operator",
          "type": "address"
        }
      ],
      "name": "isApprovedForAll",
      "outputs": [
        {
          "internalType": "bool",
          "name": "",
          "type": "bool"
        }
      ],
      "stateMutability": "view",
      "type": "function"
    },
    {
      "inputs": [],
      "name": "mint",
      "outputs": [],
      "stateMutability": "payable",
      "type": "function"
    },
    {
      "inputs": [],
      "name": "name",
      "outputs": [
        {
          "internalType": "string",
          "name": "",
          "type": "string"
        }
      ],
      "stateMutability": "view",
      "type": "function"
    },
    {
      "inputs": [],
      "name": "owner",
      "outputs": [
        {
          "internalType": "address",
          "name": "",
          "type": "address"
        }
      ],
      "stateMutability": "view",
      "type": "function"
    },
    {
      "inputs": [
        {
          "internalType": "uint256",
          "name": "tokenId",
          "type": "uint256"
        }
      ],
      "name": "ownerOf",
      "outputs": [
        {
          "internalType": "address",
          "name": "",
          "type": "address"
        }
      ],
      "stateMutability": "view",
      "type": "function"
    },
    {
      "inputs": [],
      "name": "renounceOwnership",
      "outputs": [],
      "stateMutability": "nonpayable",
      "type": "function"
    },
    {
      "inputs": [
        {
          "internalType": "address",
          "name": "from",
          "type": "address"
        },
        {
          "internalType": "address",
          "name": "to",
          "type": "address"
        },
        {
          "internalType": "uint256",
          "name": "tokenId",
          "type": "uint256"
        }
      ],
      "name": "safeTransferFrom",
      "outputs": [],
      "stateMutability": "nonpayable",
      "type": "function"
    },
    {
      "inputs": [
        {
          "internalType": "address",
          "name": "from",
          "type": "address"
        },
        {
          "internalType": "address",
          "name": "to",
          "type": "address"
        },
        {
          "internalType": "uint256",
          "name": "tokenId",
          "type": "uint256"
        },
        {
          "internalType": "bytes",
          "name": "data",
          "type": "bytes"
        }
      ],
      "name": "safeTransferFrom",
      "outputs": [],
      "stateMutability": "nonpayable",
      "type": "function"
    },
    {
      "inputs": [
        {
          "internalType": "address",
          "name": "operator",
          "type": "address"
        },
        {
          "internalType": "bool",
          "name": "approved",
          "type": "bool"
        }
      ],
      "name": "setApprovalForAll",
      "outputs": [],
      "stateMutability": "nonpayable",
      "type": "function"
    },
    {
      "inputs": [
        {
          "internalType": "bytes4",
          "name": "interfaceId",
          "type": "bytes4"
        }
      ],
      "name": "supportsInterface",
      "outputs": [
        {
          "internalType": "bool",
          "name": "",
          "type": "bool"
        }
      ],
      "stateMutability": "view",
      "type": "function"
    },
    {
      "inputs": [],
      "name": "symbol",
      "outputs": [
        {
          "internalType": "string",
          "name": "",
          "type": "string"
        }
      ],
      "stateMutability": "view",
      "type": "function"
    },
    {
      "inputs": [
        {
          "internalType": "uint256",
          "name": "tokenId",
          "type": "uint256"
        }
      ],
      "name": "tokenURI",
      "outputs": [
        {
          "internalType": "string",
          "name": "",
          "type": "string"
        }
      ],
      "stateMutability": "view",
      "type": "function"
    },
    {
      "inputs": [
        {
          "internalType": "address",
          "name": "from",
          "type": "address"
        },
        {
          "internalType": "address",
          "name": "to",
          "type": "address"
        },
        {
          "internalType": "uint256",
          "name": "tokenId",
          "type": "uint256"
        }
      ],
      "name": "transferFrom",
      "outputs": [],
      "stateMutability": "nonpayable",
      "type": "function"
    },
    {
      "inputs": [
        {
          "internalType": "address",
          "name": "newOwner",
          "type": "address"
        }
      ],
      "name": "transferOwnership",
      "outputs": [],
      "stateMutability": "nonpayable",
      "type": "function"
    },
    {
      "inputs": [],
      "name": "withdraw",
      "outputs": [],
      "stateMutability": "nonpayable",
      "type": "function"
    }
  ],
  "bytecode": "0x608060405260006008553480156200001657600080fd5b506040518060400160405280600481526020017f46697665000000000000000000000000000000000000000000000000000000008152506040518060400160405280600481526020017f464956450000000000000000000000000000000000000000000000000000000081525081600090816200009491906200041f565b508060019081620000a691906200041f565b505050620000c9620000bd620000d760201b60201c565b620000df60201b60201c565b600160078190555062000506565b600033905090565b6000600660009054906101000a900473ffffffffffffffffffffffffffffffffffffffff16905081600660006101000a81548173ffffffffffffffffffffffffffffffffffffffff021916908373ffffffffffffffffffffffffffffffffffffffff1602179055508173ffffffffffffffffffffffffffffffffffffffff168173ffffffffffffffffffffffffffffffffffffffff167f8be0079c531659141344cd1fd0a4f28419497f9722a3daafe3b4186f6b6457e060405160405180910390a35050565b600081519050919050565b7f4e487b7100000000000000000000000000000000000000000000000000000000600052604160045260246000fd5b7f4e487b7100000000000000000000000000000000000000000000000000000000600052602260045260246000fd5b600060028204905060018216806200022757607f821691505b6020821081036200023d576200023c620001df565b5b50919050565b60008190508160005260206000209050919050565b60006020601f8301049050919050565b600082821b905092915050565b600060088302620002a77fffffffffffffffffffffffffffffffffffffffffffffffffffffffffffffffff8262000268565b620002b3868362000268565b95508019841693508086168417925050509392505050565b6000819050919050565b6000819050919050565b600062000300620002fa620002f484620002cb565b620002d5565b620002cb565b9050919050565b6000819050919050565b6200031c83620002df565b620003346200032b8262000307565b84845462000275565b825550505050565b600090565b6200034b6200033c565b6200035881848462000311565b505050565b5b8181101562000380576200037460008262000341565b6001810190506200035e565b5050565b601f821115620003cf57620003998162000243565b620003a48462000258565b81016020851015620003b4578190505b620003cc620003c38562000258565b8301826200035d565b50505b505050565b600082821c905092915050565b6000620003f460001984600802620003d4565b1980831691505092915050565b60006200040f8383620003e1565b9150826002028217905092915050565b6200042a82620001a5565b67ffffffffffffffff811115620004465762000445620001b0565b5b6200045282546200020e565b6200045f82828562000384565b600060209050601f83116001811462000497576000841562000482578287015190505b6200048e858262000401565b865550620004fe565b601f198416620004a78662000243565b60005b82811015620004d157848901518255600182019150602085019450602081019050620004aa565b86831015620004f15784890151620004ed601f891682620003e1565b8355505b6001600288020188555050505b505050505050565b612f6780620005166000396000f3fe60806040526004361061012a5760003560e01c80636352211e116100ab578063a22cb4651161006f578063a22cb465146103bf578063b88d4fde146103e8578063bf8fbbd214610411578063c87b56dd1461043c578063e985e9c514610479578063f2fde38b146104b65761012a565b80636352211e146102d857806370a0823114610315578063715018a6146103525780638da5cb5b1461036957806395d89b41146103945761012a565b806323b872dd116100f257806323b872dd1461020757806332cb6b0c1461023057806338e21cce1461025b5780633ccfd60b1461029857806342842e0e146102af5761012a565b806301ffc9a71461012f57806306fdde031461016c578063081812fc14610197578063095ea7b3146101d45780631249c58b146101fd575b600080fd5b34801561013b57600080fd5b5061015660048036038101906101519190611eac565b6104df565b6040516101639190611ef4565b60405180910390f35b34801561017857600080fd5b506101816105c1565b60405161018e9190611f9f565b60405180910390f35b3480156101a357600080fd5b506101be60048036038101906101b99190611ff7565b610653565b6040516101cb9190612065565b60405180910390f35b3480156101e057600080fd5b506101fb60048036038101906101f691906120ac565b610699565b005b6102056107b0565b005b34801561021357600080fd5b5061022e600480360381019061022991906120ec565b6109ca565b005b34801561023c57600080fd5b50610245610a2a565b604051610252919061214e565b60405180910390f35b34801561026757600080fd5b50610282600480360381019061027d9190612169565b610a2f565b60405161028f9190611ef4565b60405180910390f35b3480156102a457600080fd5b506102ad610a4f565b005b3480156102bb57600080fd5b506102d660048036038101906102d191906120ec565b610aa6565b005b3480156102e457600080fd5b506102ff60048036038101906102fa9190611ff7565b610ac6565b60405161030c9190612065565b60405180910390f35b34801561032157600080fd5b5061033c60048036038101906103379190612169565b610b4c565b604051610349919061214e565b60405180910390f35b34801561035e57600080fd5b50610367610c03565b005b34801561037557600080fd5b5061037e610c17565b60405161038b9190612065565b60405180910390f35b3480156103a057600080fd5b506103a9610c41565b6040516103b69190611f9f565b60405180910390f35b3480156103cb57600080fd5b506103e660048036038101906103e191906121c2565b610cd3565b005b3480156103f457600080fd5b5061040f600480360381019061040a9190612337565b610ce9565b005b34801561041d57600080fd5b50610426610d4b565b604051610433919061214e565b60405180910390f35b34801561044857600080fd5b50610463600480360381019061045e9190611ff7565b610d56565b6040516104709190611f9f565b60405180910390f35b34801561048557600080fd5b506104a0600480360381019061049b91906123ba565b610dbe565b6040516104ad9190611ef4565b60405180910390f35b3480156104c257600080fd5b506104dd60048036038101906104d89190612169565b610e52565b005b60007f80ac58cd000000000000000000000000000000000000000000000000000000007bffffffffffffffffffffffffffffffffffffffffffffffffffffffff1916827bffffffffffffffffffffffffffffffffffffffffffffffffffffffff191614806105aa57507f5b5e139f000000000000000000000000000000000000000000000000000000007bffffffffffffffffffffffffffffffffffffffffffffffffffffffff1916827bffffffffffffffffffffffffffffffffffffffffffffffffffffffff1916145b806105ba57506105b982610ed5565b5b9050919050565b6060600080546105d090612429565b80601f01602080910402602001604051908101604052809291908181526020018280546105fc90612429565b80156106495780601f1061061e57610100808354040283529160200191610649565b820191906000526020600020905b81548152906001019060200180831161062c57829003601f168201915b5050505050905090565b600061065e82610f3f565b6004600083815260200190815260200160002060009054906101000a900473ffffffffffffffffffffffffffffffffffffffff169050919050565b60006106a482610ac6565b90508073ffffffffffffffffffffffffffffffffffffffff168373ffffffffffffffffffffffffffffffffffffffff1603610714576040517f08c379a000000000000000000000000000000000000000000000000000000000815260040161070b906124cc565b60405180910390fd5b8073ffffffffffffffffffffffffffffffffffffffff16610733610f8a565b73ffffffffffffffffffffffffffffffffffffffff16148061076257506107618161075c610f8a565b610dbe565b5b6107a1576040517f08c379a00000000000000000000000000000000000000000000000000000000081526004016107989061255e565b60405180910390fd5b6107ab8383610f92565b505050565b6107b861104b565b602a600854106107fd576040517f08c379a00000000000000000000000000000000000000000000000000000000081526004016107f4906125f0565b60405180910390fd5b60001515600960003373ffffffffffffffffffffffffffffffffffffffff1673ffffffffffffffffffffffffffffffffffffffff16815260200190815260200160002060009054906101000a900460ff16151514610890576040517f08c379a000000000000000000000000000000000000000000000000000000000815260040161088790612682565b60405180910390fd5b66f52322698080003410156108da576040517f08c379a00000000000000000000000000000000000000000000000000000000081526004016108d190612714565b60405180910390fd5b600060016008546108eb9190612763565b90506108f7338261109a565b806008819055506001600960003373ffffffffffffffffffffffffffffffffffffffff1673ffffffffffffffffffffffffffffffffffffffff16815260200190815260200160002060006101000a81548160ff02191690831515021790555066f52322698080003411156109bf573373ffffffffffffffffffffffffffffffffffffffff166108fc66f5232269808000346109929190612797565b9081150290604051600060405180830381858888f193505050501580156109bd573d6000803e3d6000fd5b505b506109c86110b8565b565b6109db6109d5610f8a565b826110c2565b610a1a576040517f08c379a0000000000000000000000000000000000000000000000000000000008152600401610a119061283d565b60405180910390fd5b610a25838383611157565b505050565b602a81565b60096020528060005260406000206000915054906101000a900460ff1681565b610a57611450565b60004790503373ffffffffffffffffffffffffffffffffffffffff166108fc829081150290604051600060405180830381858888f19350505050158015610aa2573d6000803e3d6000fd5b5050565b610ac183838360405180602001604052806000815250610ce9565b505050565b600080610ad2836114ce565b9050600073ffffffffffffffffffffffffffffffffffffffff168173ffffffffffffffffffffffffffffffffffffffff1603610b43576040517f08c379a0000000000000000000000000000000000000000000000000000000008152600401610b3a906128a9565b60405180910390fd5b80915050919050565b60008073ffffffffffffffffffffffffffffffffffffffff168273ffffffffffffffffffffffffffffffffffffffff1603610bbc576040517f08c379a0000000000000000000000000000000000000000000000000000000008152600401610bb39061293b565b60405180910390fd5b600360008373ffffffffffffffffffffffffffffffffffffffff1673ffffffffffffffffffffffffffffffffffffffff168152602001908152602001600020549050919050565b610c0b611450565b610c15600061150b565b565b6000600660009054906101000a900473ffffffffffffffffffffffffffffffffffffffff16905090565b606060018054610c5090612429565b80601f0160208091040260200160405190810160405280929190818152602001828054610c7c90612429565b8015610cc95780601f10610c9e57610100808354040283529160200191610cc9565b820191906000526020600020905b815481529060010190602001808311610cac57829003601f168201915b5050505050905090565b610ce5610cde610f8a565b83836115d1565b5050565b610cfa610cf4610f8a565b836110c2565b610d39576040517f08c379a0000000000000000000000000000000000000000000000000000000008152600401610d309061283d565b60405180910390fd5b610d458484848461173d565b50505050565b66f523226980800081565b6060610d6182610f3f565b6000610d6b611799565b90506000815111610d8b5760405180602001604052806000815250610db6565b80610d95846117b0565b604051602001610da6929190612997565b6040516020818303038152906040525b915050919050565b6000600560008473ffffffffffffffffffffffffffffffffffffffff1673ffffffffffffffffffffffffffffffffffffffff16815260200190815260200160002060008373ffffffffffffffffffffffffffffffffffffffff1673ffffffffffffffffffffffffffffffffffffffff16815260200190815260200160002060009054906101000a900460ff16905092915050565b610e5a611450565b600073ffffffffffffffffffffffffffffffffffffffff168173ffffffffffffffffffffffffffffffffffffffff1603610ec9576040517f08c379a0000000000000000000000000000000000000000000000000000000008152600401610ec090612a2d565b60405180910390fd5b610ed28161150b565b50565b60007f01ffc9a7000000000000000000000000000000000000000000000000000000007bffffffffffffffffffffffffffffffffffffffffffffffffffffffff1916827bffffffffffffffffffffffffffffffffffffffffffffffffffffffff1916149050919050565b610f488161187e565b610f87576040517f08c379a0000000000000000000000000000000000000000000000000000000008152600401610f7e906128a9565b60405180910390fd5b50565b600033905090565b816004600083815260200190815260200160002060006101000a81548173ffffffffffffffffffffffffffffffffffffffff021916908373ffffffffffffffffffffffffffffffffffffffff160217905550808273ffffffffffffffffffffffffffffffffffffffff1661100583610ac6565b73ffffffffffffffffffffffffffffffffffffffff167f8c5be1e5ebec7d5bd14f71427d1e84f3dd0314c0f7b2291e5b200ac8c7c3b92560405160405180910390a45050565b600260075403611090576040517f08c379a000000000000000000000000000000000000000000000000000000000815260040161108790612a99565b60405180910390fd5b6002600781905550565b6110b48282604051806020016040528060008152506118bf565b5050565b6001600781905550565b6000806110ce83610ac6565b90508073ffffffffffffffffffffffffffffffffffffffff168473ffffffffffffffffffffffffffffffffffffffff161480611110575061110f8185610dbe565b5b8061114e57508373ffffffffffffffffffffffffffffffffffffffff1661113684610653565b73ffffffffffffffffffffffffffffffffffffffff16145b91505092915050565b8273ffffffffffffffffffffffffffffffffffffffff1661117782610ac6565b73ffffffffffffffffffffffffffffffffffffffff16146111cd576040517f08c379a00000000000000000000000000000000000000000000000000000000081526004016111c490612b2b565b60405180910390fd5b600073ffffffffffffffffffffffffffffffffffffffff168273ffffffffffffffffffffffffffffffffffffffff160361123c576040517f08c379a000000000000000000000000000000000000000000000000000000000815260040161123390612bbd565b60405180910390fd5b611249838383600161191a565b8273ffffffffffffffffffffffffffffffffffffffff1661126982610ac6565b73ffffffffffffffffffffffffffffffffffffffff16146112bf576040517f08c379a00000000000000000000000000000000000000000000000000000000081526004016112b690612b2b565b60405180910390fd5b6004600082815260200190815260200160002060006101000a81549073ffffffffffffffffffffffffffffffffffffffff02191690556001600360008573ffffffffffffffffffffffffffffffffffffffff1673ffffffffffffffffffffffffffffffffffffffff168152602001908152602001600020600082825403925050819055506001600360008473ffffffffffffffffffffffffffffffffffffffff1673ffffffffffffffffffffffffffffffffffffffff16815260200190815260200160002060008282540192505081905550816002600083815260200190815260200160002060006101000a81548173ffffffffffffffffffffffffffffffffffffffff021916908373ffffffffffffffffffffffffffffffffffffffff160217905550808273ffffffffffffffffffffffffffffffffffffffff168473ffffffffffffffffffffffffffffffffffffffff167fddf252ad1be2c89b69c2b068fc378daa952ba7f163c4a11628f55a4df523b3ef60405160405180910390a461144b8383836001611920565b505050565b611458610f8a565b73ffffffffffffffffffffffffffffffffffffffff16611476610c17565b73ffffffffffffffffffffffffffffffffffffffff16146114cc576040517f08c379a00000000000000000000000000000000000000000000000000000000081526004016114c390612c29565b60405180910390fd5b565b60006002600083815260200190815260200160002060009054906101000a900473ffffffffffffffffffffffffffffffffffffffff169050919050565b6000600660009054906101000a900473ffffffffffffffffffffffffffffffffffffffff16905081600660006101000a81548173ffffffffffffffffffffffffffffffffffffffff021916908373ffffffffffffffffffffffffffffffffffffffff1602179055508173ffffffffffffffffffffffffffffffffffffffff168173ffffffffffffffffffffffffffffffffffffffff167f8be0079c531659141344cd1fd0a4f28419497f9722a3daafe3b4186f6b6457e060405160405180910390a35050565b8173ffffffffffffffffffffffffffffffffffffffff168373ffffffffffffffffffffffffffffffffffffffff160361163f576040517f08c379a000000000000000000000000000000000000000000000000000000000815260040161163690612c95565b60405180910390fd5b80600560008573ffffffffffffffffffffffffffffffffffffffff1673ffffffffffffffffffffffffffffffffffffffff16815260200190815260200160002060008473ffffffffffffffffffffffffffffffffffffffff1673ffffffffffffffffffffffffffffffffffffffff16815260200190815260200160002060006101000a81548160ff0219169083151502179055508173ffffffffffffffffffffffffffffffffffffffff168373ffffffffffffffffffffffffffffffffffffffff167f17307eab39ab6107e8899845ad3d59bd9653f200f220920489ca2b5937696c31836040516117309190611ef4565b60405180910390a3505050565b611748848484611157565b61175484848484611926565b611793576040517f08c379a000000000000000000000000000000000000000000000000000000000815260040161178a90612d27565b60405180910390fd5b50505050565b606060405180602001604052806000815250905090565b6060600060016117bf84611aad565b01905060008167ffffffffffffffff8111156117de576117dd61220c565b5b6040519080825280601f01601f1916602001820160405280156118105781602001600182028036833780820191505090505b509050600082602001820190505b600115611873578080600190039150507f3031323334353637383961626364656600000000000000000000000000000000600a86061a8153600a858161186757611866612d47565b5b0494506000850361181e575b819350505050919050565b60008073ffffffffffffffffffffffffffffffffffffffff166118a0836114ce565b73ffffffffffffffffffffffffffffffffffffffff1614159050919050565b6118c98383611c00565b6118d66000848484611926565b611915576040517f08c379a000000000000000000000000000000000000000000000000000000000815260040161190c90612d27565b60405180910390fd5b505050565b50505050565b50505050565b60006119478473ffffffffffffffffffffffffffffffffffffffff16611e1d565b15611aa0578373ffffffffffffffffffffffffffffffffffffffff1663150b7a02611970610f8a565b8786866040518563ffffffff1660e01b81526004016119929493929190612dcb565b6020604051808303816000875af19250505080156119ce57506040513d601f19601f820116820180604052508101906119cb9190612e2c565b60015b611a50573d80600081146119fe576040519150601f19603f3d011682016040523d82523d6000602084013e611a03565b606091505b506000815103611a48576040517f08c379a0000000000000000000000000000000000000000000000000000000008152600401611a3f90612d27565b60405180910390fd5b805181602001fd5b63150b7a0260e01b7bffffffffffffffffffffffffffffffffffffffffffffffffffffffff1916817bffffffffffffffffffffffffffffffffffffffffffffffffffffffff191614915050611aa5565b600190505b949350505050565b600080600090507a184f03e93ff9f4daa797ed6e38ed64bf6a1f0100000000000000008310611b0b577a184f03e93ff9f4daa797ed6e38ed64bf6a1f0100000000000000008381611b0157611b00612d47565b5b0492506040810190505b6d04ee2d6d415b85acef81000000008310611b48576d04ee2d6d415b85acef81000000008381611b3e57611b3d612d47565b5b0492506020810190505b662386f26fc100008310611b7757662386f26fc100008381611b6d57611b6c612d47565b5b0492506010810190505b6305f5e1008310611ba0576305f5e1008381611b9657611b95612d47565b5b0492506008810190505b6127108310611bc5576127108381611bbb57611bba612d47565b5b0492506004810190505b60648310611be85760648381611bde57611bdd612d47565b5b0492506002810190505b600a8310611bf7576001810190505b80915050919050565b600073ffffffffffffffffffffffffffffffffffffffff168273ffffffffffffffffffffffffffffffffffffffff1603611c6f576040517f08c379a0000000000000000000000000000000000000000000000000000000008152600401611c6690612ea5565b60405180910390fd5b611c788161187e565b15611cb8576040517f08c379a0000000000000000000000000000000000000000000000000000000008152600401611caf90612f11565b60405180910390fd5b611cc660008383600161191a565b611ccf8161187e565b15611d0f576040517f08c379a0000000000000000000000000000000000000000000000000000000008152600401611d0690612f11565b60405180910390fd5b6001600360008473ffffffffffffffffffffffffffffffffffffffff1673ffffffffffffffffffffffffffffffffffffffff16815260200190815260200160002060008282540192505081905550816002600083815260200190815260200160002060006101000a81548173ffffffffffffffffffffffffffffffffffffffff021916908373ffffffffffffffffffffffffffffffffffffffff160217905550808273ffffffffffffffffffffffffffffffffffffffff16600073ffffffffffffffffffffffffffffffffffffffff167fddf252ad1be2c89b69c2b068fc378daa952ba7f163c4a11628f55a4df523b3ef60405160405180910390a4611e19600083836001611920565b5050565b6000808273ffffffffffffffffffffffffffffffffffffffff163b119050919050565b6000604051905090565b600080fd5b600080fd5b60007fffffffff0000000000000000000000000000000000000000000000000000000082169050919050565b611e8981611e54565b8114611e9457600080fd5b50565b600081359050611ea681611e80565b92915050565b600060208284031215611ec257611ec1611e4a565b5b6000611ed084828501611e97565b91505092915050565b60008115159050919050565b611eee81611ed9565b82525050565b6000602082019050611f096000830184611ee5565b92915050565b600081519050919050565b600082825260208201905092915050565b60005b83811015611f49578082015181840152602081019050611f2e565b60008484015250505050565b6000601f19601f8301169050919050565b6000611f7182611f0f565b611f7b8185611f1a565b9350611f8b818560208601611f2b565b611f9481611f55565b840191505092915050565b60006020820190508181036000830152611fb98184611f66565b905092915050565b6000819050919050565b611fd481611fc1565b8114611fdf57600080fd5b50565b600081359050611ff181611fcb565b92915050565b60006020828403121561200d5761200c611e4a565b5b600061201b84828501611fe2565b91505092915050565b600073ffffffffffffffffffffffffffffffffffffffff82169050919050565b600061204f82612024565b9050919050565b61205f81612044565b82525050565b600060208201905061207a6000830184612056565b92915050565b61208981612044565b811461209457600080fd5b50565b6000813590506120a681612080565b92915050565b600080604083850312156120c3576120c2611e4a565b5b60006120d185828601612097565b92505060206120e285828601611fe2565b9150509250929050565b60008060006060848603121561210557612104611e4a565b5b600061211386828701612097565b935050602061212486828701612097565b925050604061213586828701611fe2565b9150509250925092565b61214881611fc1565b82525050565b6000602082019050612163600083018461213f565b92915050565b60006020828403121561217f5761217e611e4a565b5b600061218d84828501612097565b91505092915050565b61219f81611ed9565b81146121aa57600080fd5b50565b6000813590506121bc81612196565b92915050565b600080604083850312156121d9576121d8611e4a565b5b60006121e785828601612097565b92505060206121f8858286016121ad565b9150509250929050565b600080fd5b600080fd5b7f4e487b7100000000000000000000000000000000000000000000000000000000600052604160045260246000fd5b61224482611f55565b810181811067ffffffffffffffff821117156122635761226261220c565b5b80604052505050565b6000612276611e40565b9050612282828261223b565b919050565b600067ffffffffffffffff8211156122a2576122a161220c565b5b6122ab82611f55565b9050602081019050919050565b82818337600083830152505050565b60006122da6122d584612287565b61226c565b9050828152602081018484840111156122f6576122f5612207565b5b6123018482856122b8565b509392505050565b600082601f83011261231e5761231d612202565b5b813561232e8482602086016122c7565b91505092915050565b6000806000806080858703121561235157612350611e4a565b5b600061235f87828801612097565b945050602061237087828801612097565b935050604061238187828801611fe2565b925050606085013567ffffffffffffffff8111156123a2576123a1611e4f565b5b6123ae87828801612309565b91505092959194509250565b600080604083850312156123d1576123d0611e4a565b5b60006123df85828601612097565b92505060206123f085828601612097565b9150509250929050565b7f4e487b7100000000000000000000000000000000000000000000000000000000600052602260045260246000fd5b6000600282049050600182168061244157607f821691505b602082108103612454576124536123fa565b5b50919050565b7f4552433732313a20617070726f76616c20746f2063757272656e74206f776e6560008201527f7200000000000000000000000000000000000000000000000000000000000000602082015250565b60006124b6602183611f1a565b91506124c18261245a565b604082019050919050565b600060208201905081810360008301526124e5816124a9565b9050919050565b7f4552433732313a20617070726f76652063616c6c6572206973206e6f7420746f60008201527f6b656e206f776e6572206f7220617070726f76656420666f7220616c6c000000602082015250565b6000612548603d83611f1a565b9150612553826124ec565b604082019050919050565b600060208201905081810360008301526125778161253b565b9050919050565b7f466976653a20416c6c20746f6b656e732068617665206265656e206d696e746560008201527f6400000000000000000000000000000000000000000000000000000000000000602082015250565b60006125da602183611f1a565b91506125e58261257e565b604082019050919050565b60006020820190508181036000830152612609816125cd565b9050919050565b7f466976653a20416464726573732068617320616c7265616479206d696e74656460008201527f206120746f6b656e000000000000000000000000000000000000000000000000602082015250565b600061266c602883611f1a565b915061267782612610565b604082019050919050565b6000602082019050818103600083015261269b8161265f565b9050919050565b7f466976653a2045746865722076616c75652073656e742069732062656c6f772060008201527f7468652070726963650000000000000000000000000000000000000000000000602082015250565b60006126fe602983611f1a565b9150612709826126a2565b604082019050919050565b6000602082019050818103600083015261272d816126f1565b9050919050565b7f4e487b7100000000000000000000000000000000000000000000000000000000600052601160045260246000fd5b600061276e82611fc1565b915061277983611fc1565b925082820190508082111561279157612790612734565b5b92915050565b60006127a282611fc1565b91506127ad83611fc1565b92508282039050818111156127c5576127c4612734565b5b92915050565b7f4552433732313a2063616c6c6572206973206e6f7420746f6b656e206f776e6560008201527f72206f7220617070726f76656400000000000000000000000000000000000000602082015250565b6000612827602d83611f1a565b9150612832826127cb565b604082019050919050565b600060208201905081810360008301526128568161281a565b9050919050565b7f4552433732313a20696e76616c696420746f6b656e2049440000000000000000600082015250565b6000612893601883611f1a565b915061289e8261285d565b602082019050919050565b600060208201905081810360008301526128c281612886565b9050919050565b7f4552433732313a2061646472657373207a65726f206973206e6f74206120766160008201527f6c6964206f776e65720000000000000000000000000000000000000000000000602082015250565b6000612925602983611f1a565b9150612930826128c9565b604082019050919050565b6000602082019050818103600083015261295481612918565b9050919050565b600081905092915050565b600061297182611f0f565b61297b818561295b565b935061298b818560208601611f2b565b80840191505092915050565b60006129a38285612966565b91506129af8284612966565b91508190509392505050565b7f4f776e61626c653a206e6577206f776e657220697320746865207a65726f206160008201527f6464726573730000000000000000000000000000000000000000000000000000602082015250565b6000612a17602683611f1a565b9150612a22826129bb565b604082019050919050565b60006020820190508181036000830152612a4681612a0a565b9050919050565b7f5265656e7472616e637947756172643a207265656e7472616e742063616c6c00600082015250565b6000612a83601f83611f1a565b9150612a8e82612a4d565b602082019050919050565b60006020820190508181036000830152612ab281612a76565b9050919050565b7f4552433732313a207472616e736665722066726f6d20696e636f72726563742060008201527f6f776e6572000000000000000000000000000000000000000000000000000000602082015250565b6000612b15602583611f1a565b9150612b2082612ab9565b604082019050919050565b60006020820190508181036000830152612b4481612b08565b9050919050565b7f4552433732313a207472616e7366657220746f20746865207a65726f2061646460008201527f7265737300000000000000000000000000000000000000000000000000000000602082015250565b6000612ba7602483611f1a565b9150612bb282612b4b565b604082019050919050565b60006020820190508181036000830152612bd681612b9a565b9050919050565b7f4f776e61626c653a2063616c6c6572206973206e6f7420746865206f776e6572600082015250565b6000612c13602083611f1a565b9150612c1e82612bdd565b602082019050919050565b60006020820190508181036000830152612c4281612c06565b9050919050565b7f4552433732313a20617070726f766520746f2063616c6c657200000000000000600082015250565b6000612c7f601983611f1a565b9150612c8a82612c49565b602082019050919050565b60006020820190508181036000830152612cae81612c72565b9050919050565b7f4552433732313a207472616e7366657220746f206e6f6e20455243373231526560008201527f63656976657220696d706c656d656e7465720000000000000000000000000000602082015250565b6000612d11603283611f1a565b9150612d1c82612cb5565b604082019050919050565b60006020820190508181036000830152612d4081612d04565b9050919050565b7f4e487b7100000000000000000000000000000000000000000000000000000000600052601260045260246000fd5b600081519050919050565b600082825260208201905092915050565b6000612d9d82612d76565b612da78185612d81565b9350612db7818560208601611f2b565b612dc081611f55565b840191505092915050565b6000608082019050612de06000830187612056565b612ded6020830186612056565b612dfa604083018561213f565b8181036060830152612e0c8184612d92565b905095945050505050565b600081519050612e2681611e80565b92915050565b600060208284031215612e4257612e41611e4a565b5b6000612e5084828501612e17565b91505092915050565b7f4552433732313a206d696e7420746f20746865207a65726f2061646472657373600082015250565b6000612e8f602083611f1a565b9150612e9a82612e59565b602082019050919050565b60006020820190508181036000830152612ebe81612e82565b9050919050565b7f4552433732313a20746f6b656e20616c7265616479206d696e74656400000000600082015250565b6000612efb601c83611f1a565b9150612f0682612ec5565b602082019050919050565b60006020820190508181036000830152612f2a81612eee565b905091905056fea2646970667358221220073aafc26c77c03ec4d054e3cf5a422e8a0896cc78daf900fee716369a7040e264736f6c63430008110033",
  "linkReferences": {},
  "deployedLinkReferences": {}
}